{"abi":[{"inputs":[{"internalType":"string","name":"_name","type":"string"}],"stateMutability":"nonpayable","type":"constructor","name":"constructor"},{"inputs":[],"name":"count","outputs":[{"internalType":"uint256","name":"","type":"uint256"}],"stateMutability":"view","type":"function"},{"inputs":[],"name":"getCounter","outputs":[{"internalType":"uint256","name":"","type":"uint256"}],"stateMutability":"view","type":"function"},{"inputs":[],"name":"increaseCounter","outputs":[],"stateMutability":"nonpayable","type":"function"},{"inputs":[],"name":"name","outputs":[{"internalType":"string","name":"","type":"string"}],"stateMutability":"view","type":"function"},{"inputs":[],"name":"nameTest","outputs":[{"internalType":"string","name":"","type":"string"}],"stateMutability":"view","type":"function"}],"bytecode":"60806040526000805534801561001457600080fd5b506040516104e73803806104e7833981016040819052610033916100e6565b805161004690600190602084019061004d565b50506101f9565b828054610059906101a8565b90600052602060002090601f01602090048101928261007b57600085556100c1565b82601f1061009457805160ff19168380011785556100c1565b828001600101855582156100c1579182015b828111156100c15782518255916020019190600101906100a6565b506100cd9291506100d1565b5090565b5b808211156100cd57600081556001016100d2565b600060208083850312156100f8578182fd5b82516001600160401b038082111561010e578384fd5b818501915085601f830112610121578384fd5b815181811115610133576101336101e3565b604051601f8201601f1916810185018381118282101715610156576101566101e3565b604052818152838201850188101561016c578586fd5b8592505b8183101561018d5783830185015181840186015291840191610170565b8183111561019d57858583830101525b979650505050505050565b6002810460018216806101bc57607f821691505b602082108114156101dd57634e487b7160e01b600052602260045260246000fd5b50919050565b634e487b7160e01b600052604160045260246000fd5b6102df806102086000396000f3fe608060405234801561001057600080fd5b50600436106100575760003560e01c806306661abd1461005c57806306fdde031461007a578063351f36931461008f5780638ada066e14610097578063b49004e91461009f575b600080fd5b6100646100a9565b6040516100719190610241565b60405180910390f35b6100826100af565b60405161007191906101ee565b61008261013d565b6100646101cf565b6100a76101d5565b005b60005481565b600180546100bc9061026e565b80601f01602080910402602001604051908101604052809291908181526020018280546100e89061026e565b80156101355780601f1061010a57610100808354040283529160200191610135565b820191906000526020600020905b81548152906001019060200180831161011857829003601f168201915b505050505081565b60606001805461014c9061026e565b80601f01602080910402602001604051908101604052809291908181526020018280546101789061026e565b80156101c55780601f1061019a576101008083540402835291602001916101c5565b820191906000526020600020905b8154815290600101906020018083116101a857829003601f168201915b5050505050905090565b60005490565b60016000808282546101e7919061024a565b9091555050565b6000602080835283518082850152825b8181101561021a578581018301518582016040015282016101fe565b8181111561022b5783604083870101525b50601f01601f1916929092016040019392505050565b90815260200190565b6000821982111561026957634e487b7160e01b81526011600452602481fd5b500190565b60028104600182168061028257607f821691505b602082108114156102a357634e487b7160e01b600052602260045260246000fd5b5091905056fea26469706673582212203bff552f868034afd1b90f901e170b57c0d7b0dba4708938dd61fb7618a859df64736f6c63430008000033","bytecodeSha1":"493fd296fdfea58e3886412fea0e9f29f220a8f4","compiler":{"evm_version":"istanbul","optimizer":{"enabled":true,"runs":200},"version":"0.8.0+commit.c7dfd78e"},"contractName":"SimpleContract","language":"Solidity","natspec":{"kind":"dev","methods":{},"version":1},"opcodes":"PUSH1 0x80 PUSH1 0x40 MSTORE CALLVALUE DUP1 ISZERO PUSH2 0x10 JUMPI PUSH1 0x0 DUP1 REVERT JUMPDEST POP PUSH1 0x4 CALLDATASIZE LT PUSH2 0x57 JUMPI PUSH1 0x0 CALLDATALOAD PUSH1 0xE0 SHR DUP1 PUSH4 0x6661ABD EQ PUSH2 0x5C JUMPI DUP1 PUSH4 0x6FDDE03 EQ PUSH2 0x7A JUMPI DUP1 PUSH4 0x351F3693 EQ PUSH2 0x8F JUMPI DUP1 PUSH4 0x8ADA066E EQ PUSH2 0x97 JUMPI DUP1 PUSH4 0xB49004E9 EQ PUSH2 0x9F JUMPI JUMPDEST PUSH1 0x0 DUP1 REVERT JUMPDEST PUSH2 0x64 PUSH2 0xA9 JUMP JUMPDEST PUSH1 0x40 MLOAD PUSH2 0x71 SWAP2 SWAP1 PUSH2 0x241 JUMP JUMPDEST PUSH1 0x40 MLOAD DUP1 SWAP2 SUB SWAP1 RETURN JUMPDEST PUSH2 0x82 PUSH2 0xAF JUMP JUMPDEST PUSH1 0x40 MLOAD PUSH2 0x71 SWAP2 SWAP1 PUSH2 0x1EE JUMP JUMPDEST PUSH2 0x82 PUSH2 0x13D JUMP JUMPDEST PUSH2 0x64 PUSH2 0x1CF JUMP JUMPDEST PUSH2 0xA7 PUSH2 0x1D5 JUMP JUMPDEST STOP JUMPDEST PUSH1 0x0 SLOAD DUP2 JUMP JUMPDEST PUSH1 0x1 DUP1 SLOAD PUSH2 0xBC SWAP1 PUSH2 0x26E JUMP JUMPDEST DUP1 PUSH1 0x1F ADD PUSH1 0x20 DUP1 SWAP2 DIV MUL PUSH1 0x20 ADD PUSH1 0x40 MLOAD SWAP1 DUP2 ADD PUSH1 0x40 MSTORE DUP1 SWAP3 SWAP2 SWAP1 DUP2 DUP2 MSTORE PUSH1 0x20 ADD DUP3 DUP1 SLOAD PUSH2 0xE8 SWAP1 PUSH2 0x26E JUMP JUMPDEST DUP1 ISZERO PUSH2 0x135 JUMPI DUP1 PUSH1 0x1F LT PUSH2 0x10A JUMPI PUSH2 0x100 DUP1 DUP4 SLOAD DIV MUL DUP4 MSTORE SWAP2 PUSH1 0x20 ADD SWAP2 PUSH2 0x135 JUMP JUMPDEST DUP3 ADD SWAP2 SWAP1 PUSH1 0x0 MSTORE PUSH1 0x20 PUSH1 0x0 KECCAK256 SWAP1 JUMPDEST DUP2 SLOAD DUP2 MSTORE SWAP1 PUSH1 0x1 ADD SWAP1 PUSH1 0x20 ADD DUP1 DUP4 GT PUSH2 0x118 JUMPI DUP3 SWAP1 SUB PUSH1 0x1F AND DUP3 ADD SWAP2 JUMPDEST POP POP POP POP POP DUP2 JUMP JUMPDEST PUSH1 0x60 PUSH1 0x1 DUP1 SLOAD PUSH2 0x14C SWAP1 PUSH2 0x26E JUMP JUMPDEST DUP1 PUSH1 0x1F ADD PUSH1 0x20 DUP1 SWAP2 DIV MUL PUSH1 0x20 ADD PUSH1 0x40 MLOAD SWAP1 DUP2 ADD PUSH1 0x40 MSTORE DUP1 SWAP3 SWAP2 SWAP1 DUP2 DUP2 MSTORE PUSH1 0x20 ADD DUP3 DUP1 SLOAD PUSH2 0x178 SWAP1 PUSH2 0x26E JUMP JUMPDEST DUP1 ISZERO PUSH2 0x1C5 JUMPI DUP1 PUSH1 0x1F LT PUSH2 0x19A JUMPI PUSH2 0x100 DUP1 DUP4 SLOAD DIV MUL DUP4 MSTORE SWAP2 PUSH1 0x20 ADD SWAP2 PUSH2 0x1C5 JUMP JUMPDEST DUP3 ADD SWAP2 SWAP1 PUSH1 0x0 MSTORE PUSH1 0x20 PUSH1 0x0 KECCAK256 SWAP1 JUMPDEST DUP2 SLOAD DUP2 MSTORE SWAP1 PUSH1 0x1 ADD SWAP1 PUSH1 0x20 ADD DUP1 DUP4 GT PUSH2 0x1A8 JUMPI DUP3 SWAP1 SUB PUSH1 0x1F AND DUP3 ADD SWAP2 JUMPDEST POP POP POP POP POP SWAP1 POP SWAP1 JUMP JUMPDEST PUSH1 0x0 SLOAD SWAP1 JUMP JUMPDEST PUSH1 0x1 PUSH1 0x0 DUP1 DUP3 DUP3 SLOAD PUSH2 0x1E7 SWAP2 SWAP1 PUSH2 0x24A JUMP JUMPDEST SWAP1 SWAP2 SSTORE POP POP JUMP JUMPDEST PUSH1 0x0 PUSH1 0x20 DUP1 DUP4 MSTORE DUP4 MLOAD DUP1 DUP3 DUP6 ADD MSTORE DUP3 JUMPDEST DUP2 DUP2 LT ISZERO PUSH2 0x21A JUMPI DUP6 DUP2 ADD DUP4 ADD MLOAD DUP6 DUP3 ADD PUSH1 0x40 ADD MSTORE DUP3 ADD PUSH2 0x1FE JUMP JUMPDEST DUP2 DUP2 GT ISZERO PUSH2 0x22B JUMPI DUP4 PUSH1 0x40 DUP4 DUP8 ADD ADD MSTORE JUMPDEST POP PUSH1 0x1F ADD PUSH1 0x1F NOT AND SWAP3 SWAP1 SWAP3 ADD PUSH1 0x40 ADD SWAP4 SWAP3 POP POP POP JUMP JUMPDEST SWAP1 DUP2 MSTORE PUSH1 0x20 ADD SWAP1 JUMP JUMPDEST PUSH1 0x0 DUP3 NOT DUP3 GT ISZERO PUSH2 0x269 JUMPI PUSH4 0x4E487B71 PUSH1 0xE0 SHL DUP2 MSTORE PUSH1 0x11 PUSH1 0x4 MSTORE PUSH1 0x24 DUP2 REVERT JUMPDEST POP ADD SWAP1 JUMP JUMPDEST PUSH1 0x2 DUP2 DIV PUSH1 0x1 DUP3 AND DUP1 PUSH2 0x282 JUMPI PUSH1 0x7F DUP3 AND SWAP2 POP JUMPDEST PUSH1 0x20 DUP3 LT DUP2 EQ ISZERO PUSH2 0x2A3 JUMPI PUSH4 0x4E487B71 PUSH1 0xE0 SHL PUSH1 0x0 MSTORE PUSH1 0x22 PUSH1 0x4 MSTORE PUSH1 0x24 PUSH1 0x0 REVERT JUMPDEST POP SWAP2 SWAP1 POP JUMP INVALID LOG2 PUSH5 0x6970667358 0x22 SLT KECCAK256 EXTCODESIZE SELFDESTRUCT SSTORE 0x2F DUP7 DUP1 CALLVALUE 0xAF 0xD1 0xB9 0xF SWAP1 0x1E OR SIGNEXTEND JUMPI 0xC0 0xD7 0xB0 0xDB LOG4 PUSH17 0x8938DD61FB7618A859DF64736F6C634300 ADDMOD STOP STOP CALLER ","sha1":"ffdfbffce2cdbd21a3ca0eca73941f7682d4aee1","source":"// SPDX-License-Identifier: MIT\n\npragma solidity 0.8.0;\n\ncontract SimpleContract {\n    uint256 public count = 0;\n    string public name;\n\n    constructor(string memory _name) {\n        name = _name;\n    }\n\n    function nameTest() public view returns (string memory) {\n        return name;\n    }\n\n    function increaseCounter() public {\n        count += 1;\n    }\n\n    function getCounter() public view returns (uint256) {\n        return count;\n    }\n}\n","sourcePath":"contracts/SimpleContract.sol","type":"contract","deployment":{"address":"0x6232E14958daF22b5A5a18cE763919442dA59094","chainid":"42","blockHeight":29994174}}