{"abi":[{"inputs":[],"name":"count","outputs":[{"internalType":"uint256","name":"","type":"uint256"}],"stateMutability":"view","type":"function"},{"inputs":[],"name":"getCounter","outputs":[{"internalType":"uint256","name":"","type":"uint256"}],"stateMutability":"view","type":"function"},{"inputs":[],"name":"increaseCounter","outputs":[],"stateMutability":"nonpayable","type":"function"}],"bytecode":"60806040526000805534801561001457600080fd5b5060ee806100236000396000f3fe6080604052348015600f57600080fd5b5060043610603c5760003560e01c806306661abd1460415780638ada066e14605b578063b49004e9146061575b600080fd5b60476069565b60405160529190608c565b60405180910390f35b6047606f565b60676075565b005b60005481565b60005490565b6001600080828254608591906095565b9091555050565b90815260200190565b6000821982111560b357634e487b7160e01b81526011600452602481fd5b50019056fea26469706673582212206f9eebde90fa8d7b3ee2ec0420ff9479acdbac594e07f74baf65ef104f978ecb64736f6c63430008000033","bytecodeSha1":"14b26373fc11ef84fbc99bf7bc1f1199e5178153","compiler":{"evm_version":"istanbul","optimizer":{"enabled":true,"runs":200},"version":"0.8.0+commit.c7dfd78e"},"contractName":"SimpleContract","language":"Solidity","natspec":{"kind":"dev","methods":{},"version":1},"opcodes":"PUSH1 0x80 PUSH1 0x40 MSTORE CALLVALUE DUP1 ISZERO PUSH1 0xF JUMPI PUSH1 0x0 DUP1 REVERT JUMPDEST POP PUSH1 0x4 CALLDATASIZE LT PUSH1 0x3C JUMPI PUSH1 0x0 CALLDATALOAD PUSH1 0xE0 SHR DUP1 PUSH4 0x6661ABD EQ PUSH1 0x41 JUMPI DUP1 PUSH4 0x8ADA066E EQ PUSH1 0x5B JUMPI DUP1 PUSH4 0xB49004E9 EQ PUSH1 0x61 JUMPI JUMPDEST PUSH1 0x0 DUP1 REVERT JUMPDEST PUSH1 0x47 PUSH1 0x69 JUMP JUMPDEST PUSH1 0x40 MLOAD PUSH1 0x52 SWAP2 SWAP1 PUSH1 0x8C JUMP JUMPDEST PUSH1 0x40 MLOAD DUP1 SWAP2 SUB SWAP1 RETURN JUMPDEST PUSH1 0x47 PUSH1 0x6F JUMP JUMPDEST PUSH1 0x67 PUSH1 0x75 JUMP JUMPDEST STOP JUMPDEST PUSH1 0x0 SLOAD DUP2 JUMP JUMPDEST PUSH1 0x0 SLOAD SWAP1 JUMP JUMPDEST PUSH1 0x1 PUSH1 0x0 DUP1 DUP3 DUP3 SLOAD PUSH1 0x85 SWAP2 SWAP1 PUSH1 0x95 JUMP JUMPDEST SWAP1 SWAP2 SSTORE POP POP JUMP JUMPDEST SWAP1 DUP2 MSTORE PUSH1 0x20 ADD SWAP1 JUMP JUMPDEST PUSH1 0x0 DUP3 NOT DUP3 GT ISZERO PUSH1 0xB3 JUMPI PUSH4 0x4E487B71 PUSH1 0xE0 SHL DUP2 MSTORE PUSH1 0x11 PUSH1 0x4 MSTORE PUSH1 0x24 DUP2 REVERT JUMPDEST POP ADD SWAP1 JUMP INVALID LOG2 PUSH5 0x6970667358 0x22 SLT KECCAK256 PUSH16 0x9EEBDE90FA8D7B3EE2EC0420FF9479AC 0xDB 0xAC MSIZE 0x4E SMOD 0xF7 0x4B 0xAF PUSH6 0xEF104F978ECB PUSH5 0x736F6C6343 STOP ADDMOD STOP STOP CALLER ","sha1":"84a80a327452ed1c52580bfa734cf14c99597d84","source":"// SPDX-License-Identifier: MIT\n\npragma solidity 0.8.0;\n\ncontract SimpleContract {\n    uint256 public count = 0;\n\n    function increaseCounter() public {\n        count += 1;\n    }\n\n    function getCounter() public view returns (uint256) {\n        return count;\n    }\n}\n","sourcePath":"contracts/SimpleContract.sol","type":"contract","deployment":{"address":"0xBe6f793D9C83fdD912D990C41e836E76594771c3","chainid":"42","blockHeight":29978713}}